{
  "contractName": "Calculator",
  "abi": [
    {
      "anonymous": false,
      "inputs": [
        {
          "indexed": false,
          "internalType": "string",
          "name": "msg",
          "type": "string"
        }
      ],
      "name": "success",
      "type": "event"
    },
    {
      "inputs": [],
      "name": "result",
      "outputs": [
        {
          "internalType": "uint256",
          "name": "",
          "type": "uint256"
        }
      ],
      "stateMutability": "view",
      "type": "function",
      "constant": true
    },
    {
      "inputs": [
        {
          "internalType": "uint256",
          "name": "num1",
          "type": "uint256"
        },
        {
          "internalType": "uint256",
          "name": "num2",
          "type": "uint256"
        }
      ],
      "name": "addNum",
      "outputs": [
        {
          "internalType": "uint256",
          "name": "",
          "type": "uint256"
        }
      ],
      "stateMutability": "pure",
      "type": "function",
      "constant": true
    },
    {
      "inputs": [
        {
          "internalType": "uint256",
          "name": "num1",
          "type": "uint256"
        },
        {
          "internalType": "uint256",
          "name": "num2",
          "type": "uint256"
        }
      ],
      "name": "subNum",
      "outputs": [
        {
          "internalType": "uint256",
          "name": "",
          "type": "uint256"
        }
      ],
      "stateMutability": "pure",
      "type": "function",
      "constant": true
    },
    {
      "inputs": [
        {
          "internalType": "uint256",
          "name": "num1",
          "type": "uint256"
        },
        {
          "internalType": "uint256",
          "name": "num2",
          "type": "uint256"
        }
      ],
      "name": "mulNum",
      "outputs": [],
      "stateMutability": "nonpayable",
      "type": "function"
    },
    {
      "inputs": [
        {
          "internalType": "uint256",
          "name": "num1",
          "type": "uint256"
        },
        {
          "internalType": "uint256",
          "name": "num2",
          "type": "uint256"
        }
      ],
      "name": "divNum",
      "outputs": [
        {
          "internalType": "uint256",
          "name": "",
          "type": "uint256"
        }
      ],
      "stateMutability": "pure",
      "type": "function",
      "constant": true
    }
  ],
  "bytecode": "0x608060405234801561000f575f80fd5b506105828061001d5f395ff3fe608060405234801561000f575f80fd5b5060043610610055575f3560e01c806365372147146100595780636f827c3e146100775780637eaddeaa146100a7578063e4ada89c146100d7578063fb596d0714610107575b5f80fd5b610061610123565b60405161006e919061024e565b60405180910390f35b610091600480360381019061008c9190610295565b610128565b60405161009e919061024e565b60405180910390f35b6100c160048036038101906100bc9190610295565b61013d565b6040516100ce919061024e565b60405180910390f35b6100f160048036038101906100ec9190610295565b6101d7565b6040516100fe919061024e565b60405180910390f35b610121600480360381019061011c9190610295565b6101ec565b005b5f5481565b5f81836101359190610300565b905092915050565b5f60028211610181576040517f08c379a00000000000000000000000000000000000000000000000000000000081526004016101789061038d565b60405180910390fd5b8183116101c3576040517f08c379a00000000000000000000000000000000000000000000000000000000081526004016101ba906103f5565b60405180910390fd5b81836101cf9190610440565b905092915050565b5f81836101e49190610470565b905092915050565b80826101f891906104a3565b5f819055507f68f068b2f0d02fca99bc8285b62fce8668fe16b7c6a810351ea25bff358c0dd860405161022a9061052e565b60405180910390a15050565b5f819050919050565b61024881610236565b82525050565b5f6020820190506102615f83018461023f565b92915050565b5f80fd5b61027481610236565b811461027e575f80fd5b50565b5f8135905061028f8161026b565b92915050565b5f80604083850312156102ab576102aa610267565b5b5f6102b885828601610281565b92505060206102c985828601610281565b9150509250929050565b7f4e487b71000000000000000000000000000000000000000000000000000000005f52601160045260245ffd5b5f61030a82610236565b915061031583610236565b925082820390508181111561032d5761032c6102d3565b5b92915050565b5f82825260208201905092915050565b7f4e756d322063616e6e6f74206265207a65726f206f72206e65676174697665005f82015250565b5f610377601f83610333565b915061038282610343565b602082019050919050565b5f6020820190508181035f8301526103a48161036b565b9050919050565b7f4e756d312073686f756c642062652067726561746572207468616e206e756d325f82015250565b5f6103df602083610333565b91506103ea826103ab565b602082019050919050565b5f6020820190508181035f83015261040c816103d3565b9050919050565b7f4e487b71000000000000000000000000000000000000000000000000000000005f52601260045260245ffd5b5f61044a82610236565b915061045583610236565b92508261046557610464610413565b5b828204905092915050565b5f61047a82610236565b915061048583610236565b925082820190508082111561049d5761049c6102d3565b5b92915050565b5f6104ad82610236565b91506104b883610236565b92508282026104c681610236565b915082820484148315176104dd576104dc6102d3565b5b5092915050565b7f5375636365737366756c6c79206d756c7469706c6965642100000000000000005f82015250565b5f610518601883610333565b9150610523826104e4565b602082019050919050565b5f6020820190508181035f8301526105458161050c565b905091905056fea26469706673582212204acc07890e6d6ade3ed550e2cb00b7b5fa699eec57a6ea2a503faeca40f0bdd864736f6c63430008140033",
  "immutableReferences": {},
  "source": "// SPDX-License-Identifier: MIT\r\npragma solidity ^0.8.0;\r\n\r\ncontract Calculator{\r\n\r\n    uint public result;\r\n    event success(string msg);\r\n\r\n    function addNum(uint num1, uint num2) public pure returns(uint)\r\n    {\r\n        return num1 + num2;\r\n    }\r\n\r\n    function subNum(uint num1, uint num2) public pure returns(uint)\r\n    {\r\n        return num1 - num2;\r\n    }\r\n\r\n    function mulNum(uint num1, uint num2) public\r\n    {\r\n        result = num1 * num2;\r\n        emit success(\"Successfully multiplied!\");\r\n    }\r\n\r\n    function divNum(uint num1, uint num2) public pure returns(uint)\r\n    {\r\n        require(num2 > 2, \"Num2 cannot be zero or negative\");\r\n        require(num1 > num2, \"Num1 should be greater than num2\");\r\n        return num1 / num2;\r\n    }\r\n}",
  "sourcePath": "D:\\PersonalProjects\\DAPPS\\Practice 2, May 04, 2023\\Calculator\\contracts\\Calculator.sol",
  "compiler": {
    "name": "solc",
    "version": "0.8.20+commit.a1b79de6.Emscripten.clang"
  },
  "schemaVersion": "3.4.14",
  "updatedAt": "2023-06-11T16:16:36.574Z",
  "networkType": "ethereum",
  "devdoc": {
    "kind": "dev",
    "methods": {},
    "version": 1
  },
  "userdoc": {
    "kind": "user",
    "methods": {},
    "version": 1
  }
}